:09033F00D2A0D2A1C2A0C2A122E9
:07034800C2A0D2A1D2A02245
:10017700AD07E4F522F52374807E00A823088006E6
:10018700CEA2E713CE13D8F8FFEDFBEF5B24FF9267
:10019700A0D2A1C2A10523E5237002052264084568
:0401A7002270D422CC
:10020E00E4FFD2A0F522F523D2A130A00FAE2374C5
:10021E0080A806088002C313D8FC4207C2A105239A
:0C022E00E523700205226408452270DC04
:01023A0022A1
:0A032100EF24FF92A0D2A1C2A12296
:0B030900D2A0D2A1A2A0E433FFC2A149
:0103140022C6
:06034F0048656C6C6F00B4
:100142001202E67BFF7A03794F7D017F0112023BA7
:100152007D427F0112025E7F057E001202D17F0185
:100162001201DE8F24EFFB7A00750C037D017F0202
:0501720012029E80FE58
:10025E008F088D0912033F7FA0120177120309AF99
:10026E0008120177120309AF09120177120309026E
:02027E00034833
:0201DE008F0888
:1001E00012033F7FA0120177120309AF08120177B3
:1001F00012030912033F7FA11201771203091202B1
:0D0200000E8F097F01120321120348AF0980
:01020D0022CE
:0602FA00C2A58F80D2A70F
:080300007F027EEFDEFEDFFC50
:0103080022D2
:0A032B00C2A61202FAC2A7020300E4
:10028000CFCDCFCECCCE1200427C007D0A120042F0
:04029000ED2430FF2A
:0A029400D2A61202FAC2A70203006C
:1002BB00AE07BE0104ED148006BE0209ED243F44D7
:0602CB0080FF12032B224C
:1002E6007F3812032B7F0C12032B7F0612032B7F02
:0402F6000102032BD3
:0A033500AC031202BBAF04020294F5
:06023B008B088A09890A04
:100241001202BBE4FDAB08AA09A90A8D82758300DD
:0C025100120003FF60061202940D80E909
:01025D00227E
:0C01AB007F0AEA24FFFDE434FFFC7E0024
:0801B7008E0D8F0E8C0F8D10D0
:1001BF007F017E00E4FBEBC39510E50F6480F874BC
:0E01CF008098500AAC0DAD0E1200300B80E887
:0101DD0022FF
:04029E008A0A8B0B32
:1002A2001202BBAA0CEAD39400400D1201ABAC0AB5
:0802B200AD0B1202801A80ED71
:0102BA002221
:100097001202BBC3EA64809480400B7F2B12029448
:1000A7008A168B17800E7F2D120294C3E49BF517D7
:1000B700E49AF516AA15EAD39400400D1201ABACE9
:0900C70016AD171202801A80ED3B
:0100D000220D
:0400D1008A1A8B1BE1
:1000D5001202BBAA1CEAD3940040297F101201AD7D
:1000E500AC1AAD1BCFCDCFCECCCE120042EF540F04
:1000F500FEC3940AEE5004243080022437FF120216
:04010500941A80D1F7
:0101090022D3
:04010A008A1F8B209D
:10010E001202BBAA21EAD394004028EA24FFFDE4A0
:10011E0034FFFC7F027E001201B7AC1FAD20CFCDA5
:10012E00CFCECCCE120042EF54012430FF120294F7
:03013E001A80D252
:01014100229B
:1002D100EF1FAC0670011E4C600A7D027CEFDCFE54
:0402E100DDFC80ECD4
:0102E50022F6
:03000000020315E3
:0C031500787FE4F6D8FD758124020142D7
:10000300BB010CE58229F582E5833AF583E02250B2
:1000130006E92582F8E622BBFE06E92582F8E222FC
:0D002300E58229F582E5833AF583E4932216
:10003000EF8DF0A4A8F0CF8CF0A428CE8DF0A42EE4
:02004000FE229E
:10004200BC000BBE0029EF8DF084FFADF022E4CCA2
:10005200F875F008EF2FFFEE33FEEC33FCEE9DEC6B
:10006200984005FCEE9DFE0FD5F0E9E4CEFD22EDB1
:10007200F8F5F0EE8420D21CFEADF075F008EF2FFB
:10008200FFED33FD4007985006D5F0F222C398FDEC
:050092000FD5F0EA2289
:00000001FF
